:060000000A128A110C280F
:10000800FE00030EF1000A08F2000A128A117C2988
:100018000A128A110F2883120313B701B801B90114
:10002800BA01BB01BC01BD01BE01BF0183010A12B7
:100038008A111E280A128A11C2210A128A11003056
:1000480083120313AB000030AA000030A90000306F
:10005800A800B001B101B6013E08AF003D08AE00EE
:100068003C08AD003B08AC0003303B05A000003065
:100078003C05A10000303D05A20000303E05A3006C
:100088003608A400A501A601A70123082706031D19
:10009800572822082606031D572821082506031D70
:1000A80057282008240603195A285B2838283B08B3
:1000B8000339A0002008B6003608283E84008313C0
:1000C8000008A0002008F30036080A128A11A221AD
:1000D8000A128A11831203133B08A0003C08A100EE
:1000E8003D08A2003E08A3002C08A0022D08031C0E
:1000F8002D0F7F288028A1022E08031C2E0F85288B
:100108008628A2022F08031C2F0F8B288C28A302F5
:100118002308031D9E282208031D9E280330210260
:10012800031D9A28E8302002031D9A28031C9D28E5
:100138009E28F328831203133E08AF003D08AE0043
:100148003C08AD003B08AC000130B0070318B10A09
:100158000030B1073108B3003008B200B401B5016E
:100168000A30F3000030F400831203133308F6005A
:100178003208F5000A128A1142210A128A117308FC
:1001880083120313A0003408283E84002008831338
:1001980080000A30F3000030F4003308F60032081B
:1001A800F5000A128A11FE200A128A1174088312B5
:1001B8000313B3007308B2000130B4070318B50A7B
:1001C8000030B5073508803AFF0080307F02031DF4
:1001D800EF2804303402031CF228F328B4288312D1
:1001E80003133F0C031C86130318861738280A12BA
:1001F8008A110C28F801F9017308740403190529F8
:1002080006293D29FA01FA0A142901300310F30DD1
:10021800F40DFF3E031D0A290130F7007708FA079D
:10022800F41F17291829092901300310F80DF90DB1
:10023800FF3E031D192974087602031D252973083A
:100248007502031C2829292930297308F502740826
:10025800031CF603F602781401300310F40CF30CB7
:10026800FF3E031D31290130FA02031D3C293D29B7
:1002780018297908F4007808F30008007308740452
:100288000319472948297729F801F80A562901301E
:100298000310F30DF40DFF3E031D4C290130F70048
:1002A8007708F807F41F59295A294B297408760248
:1002B800031D602973087502031C632964296A29D0
:1002C8007308F5027408031CF603F60201300310E4
:1002D800F40CF30CFF3E031D6B290130F802031DDB
:1002E800762977295A297608F4007508F30008005A
:1002F8000B1D7F2980299B29013083120313BB071B
:10030800003003180130BC07003003180130BD0766
:10031800003003180130BE073F08031994299629B5
:10032800013097290030F0007008BF000B117208E7
:100338008A00710E8300FE0E7E0E0900F5008312FE
:100348000313851507160130F4007508043E013EB5
:10035800AF290310F40DFF3E031DAD297408880072
:10036800071287157308013E84000A128A11E121D9
:100378000A128A1188008711851108008B170B173C
:100388008B1601308316031381009B3083120313ED
:1003980081008316031385118613871107128712AC
:1003A8008801831203138716FF3088008712071607
:1003B800F030880007128511080001308A0004080F
:1003C800840A82070034C034F934A434B034993430
:0A03D80092348234F83480349834F3
:08400000FF3FFF3FFF3FFF3FC0
:02400E00713F00
:00000001FF
