:100000000A128A11FC2F00308A000408840A820731
:100010000034C0340034F9340034A4340034B03433
:100020000034993400349234003482340034F8348B
:0A00300000348034003498340034AA
:100F6A0083160313851187110712871288018312CA
:100F7A0003138716FF308800871285110716F03091
:100F8A0088000712F301F40183120313871573080B
:100F9A00F0007007013E84000A128A1103200A1227
:100FAA008A11880087110330F2008A30F100553027
:100FBA00F000F00BDE2FF10BDE2FF20BDE2FE52F08
:100FCA000130F3070318F40A0030F4077408803A72
:100FDA00FF0080307F02031DF42F0A307302031CC6
:100FEA00F72FF82FC92FC72F0A128A110028830159
:060FFA000A128A11B52F56
:08400000FF3FFF3FFF3FFF3FC0
:02400E00713F00
:00000001FF
