:060000000A128A110E280D
:10000800FE00030EF0000A08F1007F08F2000A1251
:100018008A118A280A128A111128F601F701F801B3
:10002800F90183120313A701A80183010A128A1197
:100038001D288B170B178B160130831603138100AD
:100048009B308312031381008316031385118711D4
:10005800071287128801831203138716FF3088005E
:1000680087120716F03088000712851183120313D0
:10007800A301A40183120313A501A601831203138C
:100088002508A0002008F30023080A128A11B120CD
:100098000A128A11033083120313A2008A30A100C6
:1000A8005530A000A00B5628A10B5628A20B5628A5
:1000B800013083120313A5070318A60A0030A60708
:1000C8002608803AFF0080307F02031D6D280A3021
:1000D8002502031C7028712842280130831203135B
:1000E800A3070318A40A0030A4072408803AFF00D5
:1000F80080307F02031D822804302302031C8528D8
:1001080086283E283A280A128A110E280B1D8D28A7
:100118008E28A8280130F8070318F90A0030F907D3
:100128007908803AFF0080307F02031D9D28043043
:100138007802031CA028A128A328F801F90101309E
:10014800F6000030F7000B117208FF0071088A00F2
:10015800700E8300FE0E7E0E0900F5008312031355
:1001680007160130F4007508043E013EBD2803104F
:10017800F40DFF3E031DBB2874088800071287157D
:100188007308013E84000A128A11CF200A128A11CC
:1001980088008711080000308A000408840A820752
:1001A8000034C034F934A434B034993492348234ED
:0601B800F8348034983495
:08400000FF3FFF3FFF3FFF3FC0
:02400E00713F00
:00000001FF
